{
  "contractName": "EventTicketsV2",
  "abi": [
    {
      "constant": true,
      "inputs": [],
      "name": "idGenerator",
      "outputs": [
        {
          "name": "",
          "type": "uint256"
        }
      ],
      "payable": false,
      "stateMutability": "view",
      "type": "function"
    },
    {
      "anonymous": false,
      "inputs": [
        {
          "indexed": false,
          "name": "desc",
          "type": "string"
        },
        {
          "indexed": false,
          "name": "url",
          "type": "string"
        },
        {
          "indexed": false,
          "name": "ticketsAvailable",
          "type": "uint256"
        },
        {
          "indexed": false,
          "name": "eventId",
          "type": "uint256"
        }
      ],
      "name": "LogEventAdded",
      "type": "event"
    },
    {
      "anonymous": false,
      "inputs": [
        {
          "indexed": false,
          "name": "buyer",
          "type": "address"
        },
        {
          "indexed": false,
          "name": "eventId",
          "type": "uint256"
        },
        {
          "indexed": false,
          "name": "numTickets",
          "type": "uint256"
        }
      ],
      "name": "LogBuyTickets",
      "type": "event"
    },
    {
      "anonymous": false,
      "inputs": [
        {
          "indexed": false,
          "name": "accountRefunded",
          "type": "address"
        },
        {
          "indexed": false,
          "name": "eventId",
          "type": "uint256"
        },
        {
          "indexed": false,
          "name": "numTickets",
          "type": "uint256"
        }
      ],
      "name": "LogGetRefund",
      "type": "event"
    },
    {
      "anonymous": false,
      "inputs": [
        {
          "indexed": false,
          "name": "owner",
          "type": "address"
        },
        {
          "indexed": false,
          "name": "balance",
          "type": "uint256"
        },
        {
          "indexed": false,
          "name": "eventId",
          "type": "uint256"
        }
      ],
      "name": "LogEndSale",
      "type": "event"
    },
    {
      "constant": false,
      "inputs": [
        {
          "name": "description",
          "type": "string"
        },
        {
          "name": "url",
          "type": "string"
        },
        {
          "name": "tickets",
          "type": "uint256"
        }
      ],
      "name": "addEvent",
      "outputs": [
        {
          "name": "id",
          "type": "uint256"
        }
      ],
      "payable": false,
      "stateMutability": "nonpayable",
      "type": "function"
    },
    {
      "constant": true,
      "inputs": [
        {
          "name": "id",
          "type": "uint256"
        }
      ],
      "name": "readEvent",
      "outputs": [
        {
          "name": "description",
          "type": "string"
        },
        {
          "name": "url",
          "type": "string"
        },
        {
          "name": "ticketsAvailable",
          "type": "uint256"
        },
        {
          "name": "sales",
          "type": "uint256"
        },
        {
          "name": "isOpen",
          "type": "bool"
        }
      ],
      "payable": false,
      "stateMutability": "view",
      "type": "function"
    },
    {
      "constant": false,
      "inputs": [
        {
          "name": "tickets",
          "type": "uint256"
        },
        {
          "name": "Id",
          "type": "uint256"
        }
      ],
      "name": "buyTickets",
      "outputs": [],
      "payable": true,
      "stateMutability": "payable",
      "type": "function"
    },
    {
      "constant": false,
      "inputs": [
        {
          "name": "id",
          "type": "uint256"
        }
      ],
      "name": "getRefund",
      "outputs": [],
      "payable": true,
      "stateMutability": "payable",
      "type": "function"
    },
    {
      "constant": true,
      "inputs": [
        {
          "name": "buyer",
          "type": "address"
        },
        {
          "name": "id",
          "type": "uint256"
        }
      ],
      "name": "getBuyerTicketCount",
      "outputs": [
        {
          "name": "ticketCount",
          "type": "uint256"
        }
      ],
      "payable": false,
      "stateMutability": "view",
      "type": "function"
    },
    {
      "constant": false,
      "inputs": [
        {
          "name": "id",
          "type": "uint256"
        }
      ],
      "name": "endSale",
      "outputs": [],
      "payable": true,
      "stateMutability": "payable",
      "type": "function"
    }
  ],
  "bytecode": "0x60806040526064600155600060025534801561001a57600080fd5b506112a28061002a6000396000f3fe6080604052600436106100705760003560e01c80638627df461161004e5780638627df461461028f578063d2f0be99146102c7578063e1ba30a9146102f5578063e7bd92b91461042e57610070565b8063046b3b971461007557806304d1a846146100e45780634da19f2014610112575b600080fd5b34801561008157600080fd5b506100ce6004803603604081101561009857600080fd5b81019080803573ffffffffffffffffffffffffffffffffffffffff16906020019092919080359060200190929190505050610459565b6040518082815260200191505060405180910390f35b610110600480360360208110156100fa57600080fd5b81019080803590602001909291905050506104b7565b005b34801561011e57600080fd5b506102796004803603606081101561013557600080fd5b810190808035906020019064010000000081111561015257600080fd5b82018360208201111561016457600080fd5b8035906020019184600183028401116401000000008311171561018657600080fd5b91908080601f016020809104026020016040519081016040528093929190818152602001838380828437600081840152601f19601f820116905080830192505050505050509192919290803590602001906401000000008111156101e957600080fd5b8201836020820111156101fb57600080fd5b8035906020019184600183028401116401000000008311171561021d57600080fd5b91908080601f016020809104026020016040519081016040528093929190818152602001838380828437600081840152601f19601f820116905080830192505050505050509192919290803590602001909291905050506106b6565b6040518082815260200191505060405180910390f35b6102c5600480360360408110156102a557600080fd5b81019080803590602001909291908035906020019092919050505061085a565b005b6102f3600480360360208110156102dd57600080fd5b8101908080359060200190929190505050610c55565b005b34801561030157600080fd5b5061032e6004803603602081101561031857600080fd5b8101908080359060200190929190505050610f92565b60405180806020018060200186815260200185815260200184151515158152602001838103835288818151815260200191508051906020019080838360005b8381101561038857808201518184015260208101905061036d565b50505050905090810190601f1680156103b55780820380516001836020036101000a031916815260200191505b50838103825287818151815260200191508051906020019080838360005b838110156103ee5780820151818401526020810190506103d3565b50505050905090810190601f16801561041b5780820380516001836020036101000a031916815260200191505b5097505050505050505060405180910390f35b34801561043a57600080fd5b5061044361116e565b6040518082815260200191505060405180910390f35b60006003600083815260200190815260200160002060040160008473ffffffffffffffffffffffffffffffffffffffff1673ffffffffffffffffffffffffffffffffffffffff16815260200190815260200160002054905092915050565b336000809054906101000a900473ffffffffffffffffffffffffffffffffffffffff1673ffffffffffffffffffffffffffffffffffffffff168173ffffffffffffffffffffffffffffffffffffffff161461057a576040517f08c379a00000000000000000000000000000000000000000000000000000000081526004018080602001828103825260168152602001807f54686973206973206e6f7420746865206f776e6572210000000000000000000081525060200191505060405180910390fd5b60006003600084815260200190815260200160002060050160006101000a81548160ff0219169083151502179055507f6497e6dff32a753fe6b3a2b3430e5f86d65c6e35cf360d52eb3494711d7d7a1c6000809054906101000a900473ffffffffffffffffffffffffffffffffffffffff163073ffffffffffffffffffffffffffffffffffffffff163184604051808473ffffffffffffffffffffffffffffffffffffffff1673ffffffffffffffffffffffffffffffffffffffff168152602001838152602001828152602001935050505060405180910390a13373ffffffffffffffffffffffffffffffffffffffff166108fc3073ffffffffffffffffffffffffffffffffffffffff16319081150290604051600060405180830381858888f193505050501580156106b1573d6000803e3d6000fd5b505050565b6000336000809054906101000a900473ffffffffffffffffffffffffffffffffffffffff1673ffffffffffffffffffffffffffffffffffffffff168173ffffffffffffffffffffffffffffffffffffffff161461077b576040517f08c379a00000000000000000000000000000000000000000000000000000000081526004018080602001828103825260168152602001807f54686973206973206e6f7420746865206f776e6572210000000000000000000081525060200191505060405180910390fd5b610783611174565b85816000018190525084816020018190525083816040018181525050600181608001901515908115158152505060006002549050816003600083815260200190815260200160002060008201518160000190805190602001906107e79291906111a5565b5060208201518160010190805190602001906108049291906111a5565b50604082015181600201556060820151816003015560808201518160050160006101000a81548160ff02191690831515021790555090505060016002600082825401925050819055508093505050509392505050565b80600115156003600083815260200190815260200160002060050160009054906101000a900460ff161515146108f8576040517f08c379a00000000000000000000000000000000000000000000000000000000081526004018080602001828103825260108152602001807f4576656e7420697320636c6f736564210000000000000000000000000000000081525060200191505060405180910390fd5b826001548102341115610973576040517f08c379a00000000000000000000000000000000000000000000000000000000081526004018080602001828103825260138152602001807f4e6f7420656e6f756768207061796d656e74210000000000000000000000000081525060200191505060405180910390fd5b83836003600082815260200190815260200160002060020154821115610a01576040517f08c379a000000000000000000000000000000000000000000000000000000000815260040180806020018281038252601d8152602001807f4e6f7420656e6f756768207469636b65747320617661696c61626c652100000081525060200191505060405180910390fd5b853386600089600360008b815260200190815260200160002060040160003373ffffffffffffffffffffffffffffffffffffffff1673ffffffffffffffffffffffffffffffffffffffff1681526020019081526020016000206000828254019250508190555089600360008b81526020019081526020016000206002016000828254039250508190555089600360008b8152602001908152602001600020600301600082825401925050819055506000600154850290506000821415610b7c573373ffffffffffffffffffffffffffffffffffffffff166108fc829081150290604051600060405180830381858888f19350505050158015610b07573d6000803e3d6000fd5b507f15827fa78fedf80f93aa72ce61e705b1362cab60ae596b1bb327076fc3856c24338685604051808473ffffffffffffffffffffffffffffffffffffffff1673ffffffffffffffffffffffffffffffffffffffff168152602001838152602001828152602001935050505060405180910390a15b6001821415610c4857600081340390503373ffffffffffffffffffffffffffffffffffffffff166108fc829081150290604051600060405180830381858888f19350505050158015610bd2573d6000803e3d6000fd5b507f73ebb2050cb3ee6869929e7a26925e92e201f14902e155037f1f90af931b3233338786604051808473ffffffffffffffffffffffffffffffffffffffff1673ffffffffffffffffffffffffffffffffffffffff168152602001838152602001828152602001935050505060405180910390a1505b5050505050505050505050565b33816000610c638383610459565b11610cb9576040517f08c379a000000000000000000000000000000000000000000000000000000000815260040180806020018281038252602c81526020018061124b602c913960400191505060405180910390fd5b6003600084815260200190815260200160002060040160003373ffffffffffffffffffffffffffffffffffffffff1673ffffffffffffffffffffffffffffffffffffffff168152602001908152602001600020543384600160006003600089815260200190815260200160002060040160003373ffffffffffffffffffffffffffffffffffffffff1673ffffffffffffffffffffffffffffffffffffffff16815260200190815260200160002054905080600360008a81526020019081526020016000206002016000828254019250508190555080600360008a815260200190815260200160002060040160003373ffffffffffffffffffffffffffffffffffffffff1673ffffffffffffffffffffffffffffffffffffffff16815260200190815260200160002060008282540392505081905550506000600154850290506000821415610ebc573373ffffffffffffffffffffffffffffffffffffffff166108fc829081150290604051600060405180830381858888f19350505050158015610e47573d6000803e3d6000fd5b507f15827fa78fedf80f93aa72ce61e705b1362cab60ae596b1bb327076fc3856c24338685604051808473ffffffffffffffffffffffffffffffffffffffff1673ffffffffffffffffffffffffffffffffffffffff168152602001838152602001828152602001935050505060405180910390a15b6001821415610f8857600081340390503373ffffffffffffffffffffffffffffffffffffffff166108fc829081150290604051600060405180830381858888f19350505050158015610f12573d6000803e3d6000fd5b507f73ebb2050cb3ee6869929e7a26925e92e201f14902e155037f1f90af931b3233338786604051808473ffffffffffffffffffffffffffffffffffffffff1673ffffffffffffffffffffffffffffffffffffffff168152602001838152602001828152602001935050505060405180910390a1505b5050505050505050565b6060806000806000610fa2611174565b600360008881526020019081526020016000206040518060a0016040529081600082018054600181600116156101000203166002900480601f0160208091040260200160405190810160405280929190818152602001828054600181600116156101000203166002900480156110595780601f1061102e57610100808354040283529160200191611059565b820191906000526020600020905b81548152906001019060200180831161103c57829003601f168201915b50505050508152602001600182018054600181600116156101000203166002900480601f0160208091040260200160405190810160405280929190818152602001828054600181600116156101000203166002900480156110fb5780601f106110d0576101008083540402835291602001916110fb565b820191906000526020600020905b8154815290600101906020018083116110de57829003601f168201915b5050505050815260200160028201548152602001600382015481526020016005820160009054906101000a900460ff161515151581525050905080600001518160200151826060015183604001510383606001518460800151849450839350955095509550955095505091939590929450565b60025481565b6040518060a00160405280606081526020016060815260200160008152602001600081526020016000151581525090565b828054600181600116156101000203166002900490600052602060002090601f016020900481019282601f106111e657805160ff1916838001178555611214565b82800160010185558215611214579182015b828111156112135782518255916020019190600101906111f8565b5b5090506112219190611225565b5090565b61124791905b8082111561124357600081600090555060010161122b565b5090565b9056fe546869732061646472657373206861732079657420746f20707572636861736520616e79207469636b657473a165627a7a723058207692bae9312aa50dac63dfceb2882934278f577e7e7708798345f4fae707fc380029",
  "source": "pragma solidity ^0.5.0;\n\n    /*\n        The EventTicketsV2 contract keeps track of the details and ticket sales of multiple events.\n     */\ncontract EventTicketsV2 {\n\n    /*\n        Define an public owner variable. Set it to the creator of the contract when it is initialized.\n    */\n    address owner;\n\n    uint   PRICE_TICKET = 100 wei;\n\n    /*\n        Create a variable to keep track of the event ID numbers.\n    */\n    uint public idGenerator = 0;\n\n    /*\n        Define an Event struct, similar to the V1 of this contract.\n        The struct has 6 fields: description, website (URL), totalTickets, sales, buyers, and isOpen.\n        Choose the appropriate variable type for each field.\n        The \"buyers\" field should keep track of addresses and how many tickets each buyer purchases.\n    */\n    struct Event {\n      string description;\n      string url;\n      uint totalTickets;\n      uint sales;\n      mapping (address => uint) buyers;\n      bool isOpen;\n    }\n\n    /*\n        Create a mapping to keep track of the events.\n        The mapping key is an integer, the value is an Event struct.\n        Call the mapping \"events\".\n    */\n    mapping(uint => Event) events;\n\n    event LogEventAdded(string desc, string url, uint ticketsAvailable, uint eventId);\n    event LogBuyTickets(address buyer, uint eventId, uint numTickets);\n    event LogGetRefund(address accountRefunded, uint eventId, uint numTickets);\n    event LogEndSale(address owner, uint balance, uint eventId);\n\n    /*\n        Create a modifier that throws an error if the msg.sender is not the owner.\n    */\n    modifier checkOwner(address isThisTheOwner) {\n      require(isThisTheOwner == owner, 'This is not the owner!');\n       _;}\n\n    // Modifier to check if event is open\n    modifier isEventOpen(uint eventId) {\n      require(events[eventId].isOpen == true, 'Event is closed!');\n       _;}\n\n    // Modifier to check payment\n    modifier enoughPayment(uint tickets) {\n      require(msg.value <= (tickets * PRICE_TICKET), \"Not enough payment!\");\n       _;}\n\n    // Modifier to check if enough tickets are available\n    modifier enoughTicketsAvailable(uint tickets, uint eventId) {\n      require(tickets <= events[eventId].totalTickets, \"Not enough tickets available!\");\n      _;}\n\n    //refund\n    modifier refund(uint tickets, address sender, uint id, uint eventType) {\n      _;\n      uint priceOfTickets = tickets * PRICE_TICKET;\n        if (eventType == 0) {\n          msg.sender.transfer(priceOfTickets);\n          emit LogBuyTickets(msg.sender, tickets, id);\n        }\n        if (eventType == 1) {\n          uint amountToRefund = msg.value - priceOfTickets;\n          msg.sender.transfer(amountToRefund);\n          emit LogGetRefund(msg.sender, tickets, id);\n        }\n    }\n\n    // Check if buyer has purchased tickets\n    modifier isPurchaser(address buyer, uint id) {\n      require(getBuyerTicketCount(buyer, id) > 0, \"This address has yet to purchase any tickets\");\n    _;}\n\n    /*\n        Define a function called addEvent().\n        This function takes 3 parameters, an event description, a URL, and a number of tickets.\n        Only the contract owner should be able to call this function.\n        In the function:\n            - Set the description, URL and ticket number in a new event.\n            - set the event to open\n            - set an event ID\n            - increment the ID\n            - emit the appropriate event\n            - return the event's ID\n    */\n    function addEvent(string memory description, string memory url, uint tickets)\n    public\n    checkOwner(msg.sender)\n    returns (uint id)\n    {\n      Event memory newEvent;\n      newEvent.description = description;\n      newEvent.url = url;\n      newEvent.totalTickets = tickets;\n      newEvent.isOpen = true;\n      uint eventId = idGenerator;\n      events[eventId] = newEvent;\n      idGenerator += 1;\n      return (eventId);\n    }\n\n\n    /*\n        Define a function called readEvent().\n        This function takes one parameter, the event ID.\n        The function returns information about the event this order:\n            1. description\n            2. URL\n            3. tickets available\n            4. sales\n            5. isOpen\n    */\n    function readEvent(uint id)\n    public view\n    returns (string memory description, string memory url, uint ticketsAvailable, uint sales, bool isOpen)\n    {\n      Event memory atId = events[id];\n      return (atId.description, atId.url, (atId.totalTickets - atId.sales), atId.sales, atId.isOpen);\n    }\n\n    /*\n        Define a function called buyTickets().\n        This function allows users to buy tickets for a specific event.\n        This function takes 2 parameters, an event ID and a number of tickets.\n        The function checks:\n            - that the event sales are open\n            - that the transaction value is sufficient to purchase the number of tickets\n            - that there are enough tickets available to complete the purchase\n        The function:\n            - increments the purchasers ticket count\n            - increments the ticket sale count\n            - refunds any surplus value sent\n            - emits the appropriate event\n    */\n    function buyTickets(uint tickets, uint Id)\n    public payable\n    isEventOpen(Id)\n    enoughPayment(tickets)\n    enoughTicketsAvailable(tickets, Id)\n    refund(tickets, msg.sender, Id, 0)\n    {\n      events[Id].buyers[msg.sender] += tickets;\n      events[Id].totalTickets -= tickets;\n      events[Id].sales += tickets;\n    }\n\n\n\n    /*\n        Define a function called getRefund().\n        This function allows users to request a refund for a specific event.\n        This function takes one parameter, the event ID.\n        TODO:\n            - check that a user has purchased tickets for the event\n            - remove refunded tickets from the sold count\n            - send appropriate value to the refund requester\n            - emit the appropriate event\n    */\n    function getRefund(uint id)\n    public payable\n    isPurchaser(msg.sender, id)\n    refund(events[id].buyers[msg.sender], msg.sender, id, 1)\n    {\n      uint tickets = events[id].buyers[msg.sender];\n      events[id].totalTickets += tickets;\n      events[id].buyers[msg.sender] -= tickets;\n    }\n\n    /*\n        Define a function called getBuyerNumberTickets()\n        This function takes one parameter, an event ID\n        This function returns a uint, the number of tickets that the msg.sender has purchased.\n    */\n\n    function getBuyerTicketCount(address buyer, uint id)\n    public view\n    returns(uint ticketCount)\n    {\n      return(events[id].buyers[buyer]);\n    }\n\n    /*\n        Define a function called endSale()\n        This function takes one parameter, the event ID\n        Only the contract owner can call this function\n        TODO:\n            - close event sales\n            - transfer the balance from those event sales to the contract owner\n            - emit the appropriate event\n    */\n    function endSale(uint id)\n    public payable\n    checkOwner(msg.sender)\n    {\n      events[id].isOpen = false;\n      emit LogEndSale(owner, address(this).balance, id);\n      msg.sender.transfer(address(this).balance);\n    }\n}\n",
  "sourcePath": "/Users/jarol/Documents/consensys/smart-contracts/event-tickets-exercise-jarolrod/contracts/EventTicketsV2.sol",
  "compiler": {
    "name": "solc",
    "version": "0.5.8+commit.23d335f2.Emscripten.clang"
  },
  "schemaVersion": "3.0.11",
  "updatedAt": "2019-07-23T23:02:37.855Z",
  "devdoc": {
    "methods": {}
  },
  "userdoc": {
    "methods": {}
  }
}